:0300000002016C8E
:0C016C00787FE4F6D8FD7581100201B325
:10026F00FFF9A4B0999282F88090C001020408109F
:03027F002040809C
:0302A90001100041
:10000600AF107E00D3EF9408748094804003020101
:100016006BE590540FF508C3EF940174809480400B
:100026001AEF940A748094805011E50890026F9339
:10003600F58090027A1202917580FFAF107E00C3A0
:10004600EF940274809480401AEF940A748094802E
:100056005011E50990026F93F58090027B12029190
:100066007580FFAF107E00C3EF94037480948040C8
:100076001AEF940A748094805011E50A90026F93E7
:10008600F58090027C1202917580FFAF107E00C34E
:10009600EF940474809480401AEF940A74809480DC
:1000A6005011E50B90026F93F58090027D1202913C
:1000B6007580FFAF107E00C3EF9405748094804076
:1000C6001AEF940A748094805011E50C90026F9395
:1000D600F58090027E1202917580FFAF107E00C3FC
:1000E600EF940674809480401AEF940A748094808A
:1000F6005011E50D90026F93F58090027F120291E8
:100106007580FFAF107E00C3EF9407748094804023
:100116001AEF940A748094805011E50E90026F9342
:10012600F5809002801202917580FFAF107E00C3A9
:10013600EF940874809480401AEF940A7480948037
:100146005011E50F90026F93F58090028112029193
:100156007580FFE5106409700375800C75A03F1269
:0601660002957580FF22E6
:0B029E00D2AFD2A8D28812000680FB6D
:030003000201F8FF
:1001F800C0E0C0F0C083C082C0D075D000C000C0CD
:1002080001C002C003C004C005C006C00720B23C3C
:1002180012028220B2330510AF107E00D3EF94088B
:10022800748094805015850E0F850D0E850C0D85F4
:100238000B0C850A0B85090A850809D3EF9409EE8A
:1002480064809480400375100130B2FDD007D00659
:10025800D005D004D003D002D001D000D0D0D082B5
:07026800D083D0F0D0E0329A
:04029100E493F5A05D
:080295007F0C7EA9DEFEDFFCF8
:01029D00223E
:0E02820000007F017EEA7D71DDFEDEFCDFFA0A
:01029000224B
:1001780002029EE493A3F8E493A34003F68001F2FD
:1001880008DFF48029E493A3F85407240CC8C33388
:10019800C4540F4420C8834004F456800146F6DF57
:1001A800E4800B01020408102040809002A9E47E3C
:1001B800019360BCA3FF543F30E509541FFEE4934C
:1001C800A360010ECF54C025E060A840B8E493A313
:1001D800FAE493A3F8E493A3C8C582C8CAC583CA3E
:1001E800F0A3C8C582C8CAC583CADFE9DEE780BEF6
:0102AC000051
:00000001FF
